:100000000C94CB010C94DD010C94DD010C94DD010A
:100010000C94DD010C94DD010C94DD010C94DD01E8
:100020000C94DD010C9417180C94DD010C94F91854
:100030000C94DD010C94DD010C94DD010C94DD01C8
:100040000C94DD010C94DD010C9449020C94DD014B
:100050000C94DD010C94DD010C94DD010C94DD01A8
:100060000C94DD010C94DD01084AD73B3BCE016EB8
:1000700084BCBFFDC12F3D6C74319ABD56833DDAFF
:100080003D00C77F11BED9E4BB4C3E916BAAAABE0E
:10009000000000803F05A84CCDB2D44EB93836A937
:1000A000020C50B9918688083CA6AAAA2ABE000074
:1000B00000803F0D0A00466C6F6174696E672070A6
:1000C0006F696E74206572726F720D0A00556E73DF
:1000D0007570706F727465642073746174656D659A
:1000E0006E740D0A00457870656374656420636FF3
:1000F0006D6D616E64206C65747465720D0A0042EA
:100100006164206E756D62657220666F726D6174D8
:100110000D0A006572726F723A20006F6B0D0A0053
:100120000D0A000D0A4772626C20302E36620057AD
:1001300061726E696E673A204661696C656420740D
:100140006F207265616420454550524F4D207365A4
:100150007474696E67732E205573696E67206465C9
:100160006661756C74732E0D0A0027242720746F46
:100170002064756D702063757272656E742073658E
:100180007474696E67730D0A0053746F726564202E
:100190006E65772073657474696E670D0A00556E1D
:1001A0006B6E6F776E20706172616D657465720D34
:1001B0000A0053746570732F6D6D206D7573742014
:1001C0006265203E20302E300D0A000D0A2724786B
:1001D0003D76616C75652720746F2073657420709F
:1001E0006172616D65746572206F72206A757374D7
:1001F0002027242720746F2064756D70206375722A
:1002000072656E742073657474696E67730D0A008D
:1002100020286D617820696E7374616E7420636F3D
:10022000726E6572696E67207370656564206368BD
:10023000616E676520696E2064656C7461206D6D08
:100240002F6D696E29002028616363656C6572619A
:1002500074696F6E20696E206D6D2F7365635E32F9
:10026000290D0A2439203D2000290D0A2438203D7B
:10027000200020287374657020706F727420696E7E
:1002800076657274206D61736B2E2062696E617287
:1002900079203D200020286D6D2F617263207365E9
:1002A000676D656E74290D0A2437203D20002028D3
:1002B0006D6D2F6D696E2064656661756C74207359
:1002C00065656B2072617465290D0A2436203D2016
:1002D0000020286D6D2F6D696E2064656661756CF8
:1002E0007420666565642072617465290D0A243581
:1002F000203D200020286D6963726F7365636F6E07
:10030000647320737465702070756C7365290D0AB1
:100310002434203D2000202873746570732F6D6D88
:10032000207A290D0A2433203D200020287374658B
:1003300070732F6D6D2079290D0A2432203D200025
:10034000202873746570732F6D6D2078290D0A2431
:1003500031203D20002430203D2000494E46494EAA
:100360004954594E414ECDCCCC3D0AD7233C17B70A
:10037000D13877CC2B329595E6241FB14F0A000077
:1003800020410000C84200401C4620BCBE4CCA1B95
:100390000E5AAEC59D7411241FBECFEFD8E0DEBF4C
:1003A000CDBF16E0A0E0B1E001C01D92AD3BB107AA
:1003B000E1F70E94980B0C948A1C0C940000EF92B9
:1003C000FF920F931F937B018C0122E030E040E00D
:1003D00050E00E949D21205C3D4B404F5F4FCA0181
:1003E000B901A80197010E947B21C901DA01019797
:1003F000A109B109292F3A2F4B2F55270196A11D8D
:10040000B11D2093C50081508093C400E0ECF0E062
:1004100080818D7F8083E1ECF0E08081806180834A
:100420008081886080838081806880831F910F91A4
:10043000FF90EF900895982F8091C00085FFFCCF2A
:100440009093C60008952091000130E020503F4F66
:1004500080910101281B31093070C90108959091E4
:10046000010180910001891719F42FEF3FEF0AC0B5
:10047000892F90E0FC01E856FA4F20810196809385
:10048000010130E0C90108958091010180930001CC
:1004900008951F920F920FB60F9211242F933F933E
:1004A0004F938F939F93EF93FF934091C60080915A
:1004B0000001E82FF0E031969F0130703197809174
:1004C000010190E02817390729F0E856FA4F4083D8
:1004D00020930001FF91EF919F918F914F913F9158
:1004E0002F910F900FBE0F901F901895982F80910D
:1004F000C00085FFFCCF9093C6000895FC0107C0A3
:100500008091C00085FFFCCF31969093C60090810A
:100510009923B1F708959C0106C08091C00085FF22
:10052000FCCF9093C600F9012F5F3F4F9491992320
:10053000A1F708952F923F924F925F926F927F9210
:100540008F929F92AF92BF92CF92DF92EF92FF92E3
:100550000F931F93DF93CF93CDB7DEB7A0970FB65E
:10056000F894DEBF0FBECDBF6B017C0129013A01BB
:10057000611571058105910541F48091C00085FFE9
:10058000FCCF80E38093C60049C08824992454019D
:100590001E010894211C311C8101080D191DC70181
:1005A000B601A30192010E947B21F80160830894A7
:1005B000811C911CA11CB11CC701B601A3019201B1
:1005C0000E947B21C901DA016C017D01C114D104B3
:1005D000E104F10409F79101280D391DBE016F5F97
:1005E0007F4FD501C4010197A109B109AC01481998
:1005F000590911C0FA01E20FF31FE081EA3010F44B
:10060000E05D01C0E95C8091C00085FFFCCFE09314
:10061000C600215030406217730761F7A0960FB6ED
:10062000F894DEBF0FBECDBFCF91DF911F910F9128
:10063000FF90EF90DF90CF90BF90AF909F908F9002
:100640007F906F905F904F903F902F9008959B0107
:10065000AC0197FF0EC08091C00085FFFCCF8DE2FA
:100660008093C60050954095309521953F4F4F4F50
:100670005F4FCA01B9012AE030E040E050E00E943B
:100680009A020895EF92FF920F931F93DF93CF93F7
:1006900000D000D0CDB7DEB7AE014F5F5F4F0E94F4
:1006A00022207B018C0169817A818B819C810E944F
:1006B000BC1D0E9427038091C00085FFFCCF8EE205
:1006C0008093C600C801B70120E030E04AE754E457
:1006D0000E9455200E94B8200E94BC1D0E94270342
:1006E0000F900F900F900F90CF91DF911F910F916E
:1006F000FF90EF900895F999FECF92BD81BD81E002
:100700008FBB80B50895F894F999FECF92BD81BD55
:1007100081E08FBB90B59627892F862339F06F3FF4
:1007200019F060BD84E006C084E104C0992321F083
:1007300060BD84E28FBBF99A789408958F929F925E
:10074000AF92BF92CF92DF92EF92FF920F93DF931F
:10075000CF9300D0CDB7DEB75C016B017A014A01BF
:1007600000E01EC0002319F021E030E008C0202F77
:10077000332727FD30952227330F221F3327F60119
:1007800061916F01062F020F9C012F5F3F4F3A834B
:1007900029830E94830308948108910889819A81A2
:1007A00081149104F9F6C7018A0D9B1D602F0E94E8
:1007B00083030F900F90CF91DF910F91FF90EF90F7
:1007C000DF90CF90BF90AF909F908F900895CF9380
:1007D000DF93EC01FB019A0190E0B1E019C0F999B7
:1007E000FECFF2BDE1BDBFBBA0B5992319F081E0FA
:1007F00090E008C0892F992787FD90958827990F49
:10080000881F992731969A2F980FA993215030402D
:100810002115310521F7460F571FF999FECF52BD1B
:1008200041BD81E08FBB80B520E030E0981711F426
:1008300021E030E0C901DF91CF91089581E2E2E04B
:10084000F1E0DF011D928A95E9F76091A6067091AB
:10085000A7068091A8069091A90620E030E040E725
:1008600052E40E94541D6093090170930A01809321
:100870000B0190930C016091AA067091AB068091D8
:10088000AC069091AD0620E030E040E752E40E94D3
:10089000541D60930D0170930E0180930F0190938E
:1008A00010011092200191E09093210182E0809349
:1008B00022019093060108950F931F93CF93DF9326
:1008C000EC018B01D9018C91FA01E80FF11DE08157
:1008D000EE23B1F0E883E154EA3110F082E00EC07B
:1008E0008C918F5F8C93CA01B901A8010E94A10D60
:1008F000892B19F021E030E005C081E080930201EE
:1009000020E030E0C901DF91CF911F910F91089550
:10091000AF92BF92CF92DF92EF92FF920F931F930D
:1009200079018A015F770E94541D0E94121D5B01AC
:100930006C01C801B70120E030E040E050E00E94C7
:10094000501F1816CCF0C601B50120E030E040E0A1
:1009500050E00E94501F18162CF46BED7FE089E4E4
:1009600090E404C06BED7FE089E490ECA601950172
:100970000E94AD1C5B016C01B501C6011F910F9176
:10098000FF90EF90DF90CF90BF90AF9008952F929F
:100990003F924F925F926F927F928F929F92AF920F
:1009A000BF92CF92DF92EF92FF920F931F93DF934C
:1009B000CF93CDB7DEB7EA970FB6F894DEBF0FBE80
:1009C000CDBF2C0119828CE0FE013796DF01282F64
:1009D0001D922A95E9F7FE017396DF011D928A9513
:1009E000E9F710920201F2018081883211F480E06F
:1009F000E6C48F3209F0F5C089818F5F8983F1C029
:100A00006B817C818D819E810E9423217B018C01E1
:100A10000E94BC1D4A814D3409F4ACC0443509F430
:100A2000D5C0473409F0D8C06531710509F48AC0D2
:100A3000663171058CF56430710509F45CC0653070
:100A40007105ACF46130710509F45BC06230710569
:100A50002CF46115710509F451C0B5C062307105FF
:100A600009F452C06330710509F0ADC050C0623165
:100A7000710509F456C0633171052CF461317105BB
:100A800009F0A1C047C06331710509F451C0643158
:100A9000710509F098C053C06A35710509F45BC04F
:100AA0006B357105A4F46E31710511F16F3171056B
:100AB0002CF46C31710509F086C01AC065337105DC
:100AC00009F443C06035710509F07DC041C06C3543
:100AD000710509F446C06C3571050CF43FC06D35E5
:100AE000710509F441C06E35710509F06CC03FC055
:100AF000F2E0FCA771C021E02CA76EC010920301A8
:100B00006BC0D092030168C0C092030165C0B0926F
:100B1000030162C010922001D0922101C0922201F3
:100B20005BC010922001C0922101D092220154C0DA
:100B3000D0922001C0922101109222014DC0D0928A
:100B400005014AC01092050147C031E03DA744C0ED
:100B5000A092030141C0D09206013EC0109206014E
:100B60003BC063E06CA738C0D092040135C010923E
:100B7000040132C063307105E1F06430710534F472
:100B800077FD21C06230710574F010C065307105C9
:100B9000B9F06530710584F06E31710539F06C3350
:100BA000710589F403C0D092070116C0C0920701F5
:100BB00013C0D092080110C07FEF709308010CC0E1
:100BC0001092080109C0B092020106C0C801B70125
:100BD0000E94C11D60931D01809102018823C9F00C
:100BE00021C01DA61CA612E0612E712C6C0E7D1E6C
:100BF000B3E02B2E312C2C0E3D1E4E010894811C8F
:100C0000911CDD24D394A3E0BA2EF2E0CF2EE4E0D1
:100C1000AE2EC301B101A20194010E945C04892B94
:100C200009F0EECE80910201882309F0C8C3198231
:100C30008CE0FE017396DF011D928A95E9F7DE01D3
:100C40001796E1E1F1E08CE001900D928150E1F71F
:100C50001FAA18AEB0E8B9AFEFEBEAAF22243324F5
:100C60000F2EF0E06F2EF0E07F2EF0E08F2EF0E000
:100C70009F2EF02D68A679A68AA69BA65E010894F1
:100C8000A11CB11CB4C0CB80DC80ED80FE808091C3
:100C90000501882319F4A70196010AC0C701B6010E
:100CA00023E333E34BEC51E40E9455209B01AC015C
:100CB0000A81003509F462C0013558F4063401F1A7
:100CC000063408F494C0802F8954833008F08FC014
:100CD00046C0033509F455C0043520F4023509F047
:100CE00086C006C0802F8855833008F080C052C06F
:100CF00028A739A74AA75BA771E0272E312C77C018
:100D000080910401882329F02FAB38AF49AF5AAF47
:100D10006EC080910301882389F4CA01B90120E0E3
:100D200030E040E752E40E94541D60930D0170933F
:100D30000E0180930F019093100159C0CA01B901AF
:100D400020E030E040E752E40E94541D6093090126
:100D500070930A0180930B0190930C0148C0E02F1F
:100D6000F0E0E954F040EE0FFF1FEE0FFF1FEA0D19
:100D7000FB1D228B338B448B558B39C036014701C9
:100D800036C0C701B6010E94BC1D70931F0160935D
:100D90001E012DC080910601882319F4FDA5FF23B3
:100DA00079F0E02FF0E0E855F040EE0FFF1FEE0F76
:100DB000FF1FEA0DFB1D268337834087518717C02D
:100DC00010E008551040000F111F000F111F0A0DF1
:100DD0001B1DD80116966D917D918D919C9119974F
:100DE0000E94AE1CF8016683778380879187CE01CD
:100DF0000296BE016D5F7F4FA20195010E945C04C7
:100E0000892B09F040CF80910201882309F0D7C2D5
:100E10008091080140911E0150911F01662757FDE6
:100E20006095762F992787FD90950E94D917FCA58C
:100E3000F13091F0F13060F1F23021F0F33009F04F
:100E4000B3C217C00E94B00B8CE0E1E1F1E0DF011A
:100E50001D928A95E9F7A8C2C401B30120E030E0F1
:100E60004AE754E40E9455200E94C11D0E944C0D87
:100E70009BC26F81788589859A852B853C854D85B8
:100E80005E85EF84F88809891A890E943B0E8CC21E
:100E9000B0910301BAABB130E9F0B13020F0B43019
:100EA00008F082C235C06F81788589859A852B8547
:100EB0003C854D855E85EF84F88809891A89A09064
:100EC0000D01B0900E01C0900F01D0901001882448
:100ED000992468C26F81788589859A852B853C85A0
:100EE0004D855E85EF84F88809891A898090040110
:100EF000882009F050C2E0910901EFABF0910A019E
:100F0000F8AFA0910B01A9AFB0910C01BAAF43C2E9
:100F1000232809F4E4C0E0912001F0E0EE0FFF1F68
:100F2000EE0FFF1FD501AE0FBF1FEE5FFE4F1696EF
:100F30006D917D918D919C9119972785308941897B
:100F400052890E94AD1C1B012C01E0912101F0E0AF
:100F5000EE0FFF1FEE0FFF1FAE0EBF1EEE5FFE4F28
:100F6000D50116966D917D918D919C91199727854C
:100F70003089418952890E94AD1C3B014C018CE0B3
:100F8000FE017396DF011D928A95E9F768A579A5A0
:100F90008AA59BA520E030E040E850E40E9455205F
:100FA00028A539A54AA55BA50E9455207B018C0187
:100FB000C201B101A20191010E9455209B01AC0127
:100FC000C801B7010E94AD1C7B018C01C401B301B3
:100FD000A40193010E9455209B01AC01C801B701F7
:100FE0000E94AD1C0E94E2207B018C01C201B10174
:100FF000A40193010E945D1F9B01AC0117FB10959A
:1010000017F91095C801B7010E94541D6B017C01AE
:10101000A70196010E942A21882321F084E0809371
:101020000201CDC1BAA9B33021F4F7FAF094F7F870
:10103000F09468A579A58AA59BA520E030E040E062
:1010400050E00E944D1D882324F4F7FAF094F7F83D
:10105000F09400912001A02EBB24AA0CBB1CAA0C6A
:10106000BB1C8E010F5F1F4FA00EB11EC401B30148
:10107000A70196010E9455209B01AC01C201B1015C
:101080000E94AD1C20E030E040E05FE30E9455206C
:10109000F501628B738B848B958B8091210190E09D
:1010A000880F991F880F991F080F191FC201B101DE
:1010B000A70196010E9455209B01AC01C401B30118
:1010C0000E94AE1C20E030E040E05FE30E9455202B
:1010D000D80152966D937D938D939C935597E09193
:1010E0002001F0E0EE0FFF1FEE0FFF1F8E010F5FDC
:1010F0001F4FE00FF11F6289738984899589905889
:10110000E0912101F0E0EE0FFF1FEE0FFF1FE00F57
:10111000F11F228933894489558950580E948804D7
:101120006CA37DA38EA39FA380912001E82EFF24B2
:1011300080912101A82EBB24EE0CFF1CEE0CFF1C9D
:10114000F801EE0DFF1D66817781808591852289EA
:101150003389448955890E94AD1CE2E0F1E0EE0E2E
:10116000FF1ED7011F962D913D914D915C91529795
:101170000E94AD1C6B017C01AA0CBB1CAA0CBB1C01
:101180000A0D1B1DF8016681778180859185228972
:101190003389448955890E94AD1C22E031E0A20EBA
:1011A000B31ED5011F962D913D914D915C915297A3
:1011B0000E94AD1C9B01AC01C701B6010E948804CE
:1011C0007B018C012CA13DA14EA15FA10E944D1D70
:1011D000882354F4C801B7012BED3FE049EC50E4FB
:1011E0000E94AE1C7B018C01C801B7012CA13DA15E
:1011F0004EA15FA10E94AD1C2B013C018091030117
:10120000833051F4C301B2012BED3FE049EC50E4CF
:101210000E94AD1C2B013C0180912001E82FF0E0E1
:10122000FBA3EAA3EE0FFF1FEE0FFF1FDE011196D7
:10123000EA0FFB1FE288F388048915898091210158
:10124000282F30E039A328A3F901EE0FFF1FEE0F7E
:10125000FF1FEA0FFB1F228933894489558980913A
:101260002201282E3324F101EE0FFF1FEE0FFF1F86
:10127000AE0FBF1F16966D917D918D919C91199720
:101280006EA77FA788AB99ABEE5FFE4FA784B088AF
:10129000C188D288709104017F8F772349F08FA98C
:1012A0008BAB98AD9CABA9ADADABBAADBEAB0CC032
:1012B000E0910901EBABF0910A01FCAB60910B01ED
:1012C0006DAB70910C017EABC801B7010E945D1F30
:1012D0007B018C018DB79EB70C970FB6F8949EBF1B
:1012E0000FBE8DBF8DB69EB60894811C911C6EA555
:1012F0007FA588A999A9A60195010E94AD1C5B0153
:101300006C01E8A1F9A1D4011196FC93EE93139618
:101310003C922E9212972BA93CA94DA95EA9C90116
:10132000DA01F40184839583A683B7832F8D208708
:10133000118681E191E0938782876CA17DA18EA1C6
:101340009FA1A30192018AA09BA00E94B30B6F8171
:10135000788589859A852B853C854D855E85EF84CA
:10136000F88809891A8980900401ADB7BEB71C9628
:101370000FB6F894BEBF0FBEADBF882061F4B09128
:101380000901BFABE0910A01E8AFF0910B01F9AFA1
:10139000A0910C01AAAFEFA9F8ADA9ADBAAD5F015C
:1013A0006D0199240E948511A1E1B1E0FE013796FB
:1013B0008CE001900D928150E1F780910201EA9654
:1013C0000FB6F894DEBF0FBECDBFCF91DF911F9156
:1013D0000F91FF90EF90DF90CF90BF90AF909F90D4
:1013E0008F907F906F905F904F903F902F900895D7
:1013F00084B1817F84B908952F923F924F925F927A
:101400006F927F928F929F92AF92BF92CF92DF9214
:10141000EF92FF920F931F93DF93CF9300D000D0F2
:101420000F92CDB7DEB78983262E342E27013801DF
:101430006091A506461A510861087108882311F0C9
:1014400094EE01C090EE211098603110906122233B
:1014500011F080EE98279090AE0699268BB1992DC9
:10146000907E8F71982B9BB9862F90E0A0E0B0E022
:101470008A839B83AC83BD8383B19981992329F0AF
:10148000199903C0A4E09A261982222029F01A99FA
:1014900003C0B8E09B262224332029F01B9903C007
:1014A000E0E19E263324F981FF2329F4222019F458
:1014B000332009F4E6C08BB19CE1892E892088296C
:1014C0008BB96A817B818C819D810E94ED1D5B01BE
:1014D0006C012BEA3AEA4AEA50E40E9455207B016B
:1014E0008C0120E030E040E85FE30E944D1D88233E
:1014F00014F461E053C0C801B70120E030E04FE7C9
:1015000053E40E94501F18160CF044C0C601B501E8
:1015100020E030E04AE754E40E94541D5B016C0176
:1015200020E030E04AE755E40E9455207B018C0121
:1015300020E030E040E85FE30E944D1D88231CF46A
:1015400061E070E023C0C801B70120E03FEF4FE742
:1015500057E40E94501F1816ACF4C601B50120E0F4
:1015600030E040E251E40E9455200E94C11D06C0B7
:1015700080E991E00197F1F76150704061157105C4
:10158000B9F70EC0C801B7010E94C11DCB01019778
:10159000F1F706C0C801B7010E94C11D6A95F1F7B5
:1015A0008BB188268BB8C301B2010E94ED1D5B018F
:1015B0006C012BEA3AEA4AEA50E40E9455207B018A
:1015C0008C0120E030E040E85FE30E944D1D88235D
:1015D00014F461E053C0C801B70120E030E04FE7E8
:1015E00053E40E94501F18160CF044C0C601B50108
:1015F00020E030E04AE754E40E94541D5B016C0196
:1016000020E030E04AE755E40E9455207B018C0140
:1016100020E030E040E85FE30E944D1D88231CF489
:1016200061E070E023C0C801B70120E03FEF4FE761
:1016300057E40E94501F1816ACF4C601B50120E013
:1016400030E040E251E40E9455200E94C11D06C0D6
:1016500080E991E00197F1F76150704061157105E3
:10166000B9F70ACFC801B7010E94C11DCB0101978C
:10167000F1F702CFC801B7010E94C11D6A95F1F7C9
:10168000FBCE0F900F900F900F900F90CF91DF91A6
:101690001F910F91FF90EF90DF90CF90BF90AF9090
:1016A0009F908F907F906F905F904F903F902F9082
:1016B0000895DF92EF92FF920F931F930E94EC1810
:1016C000D3B080E060E041E020E0F0EAEF2EF6E801
:1016D000FF2EF1E00F2F112D0E94FC0981E061E047
:1016E00040E020E00E94FC0983B18D258E7090E0DF
:1016F000BC0176956795769567956170AC0173E04E
:10170000569547957A95E1F7417096958795817042
:1017100021E030E2E32E31EAF32E37E0032F112DE2
:101720000E94FC091F910F91FF90EF90DF900895A8
:101730000E947A150E9464170E94FC140E94971858
:101740000E9400180E941E040E94F80983B781605D
:1017500083BF889583B78E7F83BF0E941815F6CF0D
:101760000E94D71808952F923F924F925F926F92E6
:101770007F928F929F92AF92BF92CF92DF92EF9221
:10178000FF920F931F93DF93CF93CDB7DEB7AE9742
:101790000FB6F894DEBF0FBECDBF2B013C0129A3CD
:1017A0003AA34BA35CA3EDA2FEA20FA318A72F960A
:1017B0002EAC3FAC2F970E94150E98A38F8F80E020
:1017C00090E00E94E21469A17AA18BA19CA12DA1B5
:1017D0003EA14FA158A50E9455207B018C01C60156
:1017E000B5010E94BC1D97FF07C09095809570952C
:1017F00061957F4F8F4F9F4F0E94EF1D9B01AC0162
:10180000C801B7010E945D1F7B018C0120E030E020
:1018100040E050E00E944D1D882309F424C1C80116
:10182000B7012091AF063091B0064091B1065091BA
:10183000B2060E94541D0E94B8200E94C11D7E8FD6
:101840006D8F2D962EAD3FAD2D97232BA1F080E00F
:1018500090E00E94ED1D9B01AC012B966CAD7DAD1F
:101860008EAD9FAD2B970E9455202B966CAF7DAF10
:101870008EAF9FAF2B97ED8DFE8DBF0180E090E086
:101880000E94ED1D7B018C0169A17AA18BA19CA115
:10189000A80197010E94541D698F7A8F8B8F9C8FAE
:1018A000C601B501A80197010E94541D6D8B7E8B66
:1018B0008F8B988FC301B2010E94D8206401CC0C99
:1018C000DD1CCC0CDD1C81010C0D1D1D2DA13EA1CC
:1018D0004FA158A50E9455209B01AC01D8016D91E4
:1018E0007D918D919C910E94AD1C698B7A8B8B8B25
:1018F0009C8BC301B2010E94511D25960EAD1FADF8
:101900002597000F111F000F111F7101E00EF11E2E
:101910002DA13EA14FA158A50E9455209B01AC01CD
:10192000F70160817181828193810E94AD1C6D8776
:101930007E878F87988B27968EAD9FAD2797880FD0
:10194000991F880F991F9E012F5F3F4FF901E80FE4
:10195000F91F280E391ED1014D915D916D917C9139
:10196000408351836283738322243324FAA7E9A737
:10197000F901EC0DFD1DFCA7EBA7C901800F911F1C
:101980009EA78DA766C0A9A5BAA56D917D918D91E1
:101990009C912D893E894F89588D0E94AE1CE9A5E6
:1019A000FAA56083718382839383C301B201298D79
:1019B0003A8D4B8D5C8D0E94AE1C2B013C010E9428
:1019C000D8202DA13EA14FA158A50E9455209B01D2
:1019D000AC0169897A898B899C890E94AE1CABA570
:1019E000BCA56D937D938D939C931397C301B20116
:1019F0000E94511D2DA13EA14FA158A50E94552026
:101A00009B01AC016D857E858F8598890E94AE1CF7
:101A1000EDA5FEA5608371838283938369817A81BA
:101A20008B819C812D813E814F815885E984FA8488
:101A30000B851C852B96ACACBDACCEACDFAC2B972C
:101A40002D968EAC9FAC2D970E9485110894211C79
:101A5000311C2D8D3E8D2216330608F494CF8F8DC8
:101A600098A10E94E214AE960FB6F894DEBF0FBEA6
:101A7000CDBFCF91DF911F910F91FF90EF90DF903D
:101A8000CF90BF90AF909F908F907F906F905F901E
:101A90004F903F902F900895AF92BF92CF92DF92D8
:101AA000EF92FF920F931F937B018C010E94EC1821
:101AB000C801B7010E94ED1D5B016C0120E030E020
:101AC0004AE755E40E9455207B018C0120E030E07C
:101AD00040E85FE30E944D1D88231CF461E070E044
:101AE00024C0C801B70120E03FEF4FE757E40E9450
:101AF000501F1816B4F4C601B50120E030E040E2F2
:101B000051E40E9455200E94C11D80E991E005C06A
:101B1000FC013197F1F76150704061157105C1F713
:101B200007C0C801B7010E94C11DCB010197F1F7A1
:101B30001F910F91FF90EF90DF90CF90BF90AF90EB
:101B40000895AF92BF92CF92DF92EF92FF920F93E0
:101B50001F93DF93CF9300D0CDB7DEB76C015B014D
:101B60007A01FB0180818601080F111DC801BE01A9
:101B70006F5F7F4F0E942A1BF7016083718382830E
:101B8000938389819A818017910719F420E030E0CE
:101B900005C08C19F501808321E030E0C9010F9068
:101BA0000F90CF91DF911F910F91FF90EF90DF90F9
:101BB000CF90BF90AF900895AF92BF92CF92DF9237
:101BC000EF92FF920F931F93A090B706B090B806C4
:101BD000C090B906D090BA06FC01E1A0F2A003A122
:101BE00014A1C601B501A80197010E944D1D87FDF2
:101BF00005C0E0E070E080E86FE308C0C601B50111
:101C0000A80197010E94541DE62F692F2E2F372F10
:101C1000482F562FB901CA011F910F91FF90EF90E5
:101C2000DF90CF90BF90AF9008958091410590E0F4
:101C300008959091330580913405981741F0809173
:101C4000340590E001968F7090708093340508956C
:101C50009091330580913405981719F420E030E015
:101C600008C09091340581E4989F900111242D5D66
:101C70003E4FC90108958F929F92AF92BF92CF922B
:101C8000DF92EF92FF920F931F9349015A01209127
:101C900098063091990640919A0650919B060E94B1
:101CA00055200E94F21F25E3C22E25E0D22E60931C
:101CB0003505709336058093370590933805C50137
:101CC000B40120919C0630919D0640919E06509152
:101CD0009F060E9455200E94F21FF60134966093E1
:101CE0003905718382839383C801B7012091A006CF
:101CF0003091A1064091A2065091A3060E94552062
:101D00000E94F21F28E030E0C20ED31E60933D0512
:101D1000F6017183828393831F910F91FF90EF905F
:101D2000DF90CF90BF90AF909F908F9008954F928B
:101D30005F926F927F928F929F92AF92BF92CF925B
:101D4000DF92EF92FF920F931F93CF93DF932C01BB
:101D5000EB016115710509F45AC0FC01E1A4F2A47C
:101D600003A514A569A47AA48BA49CA4C801B701F7
:101D7000A40193010E944D1D88230CF048C0A9A026
:101D8000BAA0CBA0DCA0C601B501A80197010E94B2
:101D900055209B01AC010E9455207B018C012091B4
:101DA000B3063091B4064091B5065091B60650582E
:101DB000CA01B9010E94AE1C20E030E040E752E4C5
:101DC0000E94552020E030E040E752EC0E94552070
:101DD000F20125A136A147A150A50E9455209B01E3
:101DE000AC01C801B7010E94AE1C0E94E220A6010E
:101DF00095010E94541D7B018C01A40193010E9456
:101E00004D1D882324F4E9A6FAA60BA71CA7DF9191
:101E1000CF911F910F91FF90EF90DF90CF90BF90E7
:101E2000AF909F908F907F906F905F904F900895AC
:101E30002F923F924F925F926F927F928F929F92DA
:101E4000AF92BF92CF92DF92EF92FF920F931F93C8
:101E5000DF93CF93CDB7DEB768970FB6F894DEBFA8
:101E60000FBECDBF1C016A017B0128013901DC01D5
:101E700051966D917D918D919C9154970E94ED1D8D
:101E80004B015C01A70196010E9455200E943A1D5A
:101E90000E94C11D7B018C01F10165A776A787A770
:101EA00090ABC501B401A30192010E9455200E948C
:101EB0003A1D0E94C11D69877A878B879C87D10153
:101EC000D1966D937D938D939C93D497D5966D9178
:101ED0007D918D919C91D89728E230E040E050E0D0
:101EE0000E9449210E94EF1D20E030E040E752E4CB
:101EF0000E9455200E94BC1D2B013C01C801B70166
:101F00000E94ED1D7B018C01C301B2010E94EF1DF7
:101F10006D837E838F839887C501B401A5019401E9
:101F20000E9455205B016C01C801B701A80197010F
:101F30000E9455206D877E878F87988B6D817E816B
:101F40008F8198859B01AC010E94AE1C698B7A8BB6
:101F50008B8B9C8BC601B5012D853E854F8558899D
:101F60000E94AD1C29893A894B895C890E94541DC5
:101F70000E943A1D0E94BC1D69837A838B839C83D7
:101F800069857A858B859C850E94ED1D9B01AC013E
:101F90000E9455206D8B7E8B8F8B988FA6019501AB
:101FA0000E94AD1C7B018C0170946094509440940D
:101FB000411C511C611C711CC301B2010E94EF1D28
:101FC0009B01AC010E94AE1C9B01AC01C801B70192
:101FD0000E94541D0E942A1EF101A584B684C78464
:101FE000D0888601750129813A814B815C81E21A92
:101FF000F30A040B150B0E94BC1DA8019701261BB8
:10200000370B480B590BDA01C90157FF36C0C6011F
:10201000B5010E94EF1D9B01AC0169897A898B890A
:102020009C890E9455202D853E854F8558890E94A8
:10203000AD1C2D893E894F89588D0E94AE1C7B01B5
:102040008C016D817E818F81988520E030E040E8B1
:1020500050E40E9455209B01AC01C801B7010E94C9
:10206000541D0E943A1D0E94BC1D69837A838B8394
:102070009C8380E090E0A0E0B0E029813A814B8130
:102080005C81F10121AF32AF43AF54AF2DE330E0BB
:10209000220E331E29813A814B815C81820F931F6E
:1020A000A41FB51FF10180839183A283B383689637
:1020B0000FB6F894DEBF0FBECDBFCF91DF911F9159
:1020C0000F91FF90EF90DF90CF90BF90AF909F90D7
:1020D0008F907F906F905F904F903F902F900895DA
:1020E0004F925F926F927F928F929F92AF92BF9228
:1020F000CF92DF92EF92FF920F931F93DF93CF93D4
:1021000000D000D0CDB7DEB78C012B016115710571
:1021100009F4E6C04115510561F0DA0199968D91F7
:102120009D910D90BC91A02D89839A83AB83BC8334
:1021300007C0CB010E94DC0D69837A838B839C836B
:102140000115110509F4C2C0F801658976898789EE
:10215000908DD20155962D913D914D915C9158975E
:102160000E94AD1C9B01AC010E9455203B014C011B
:10217000F801618D728D838D948DD20159962D91C8
:102180003D914D915C915C970E94AD1C9B01AC010F
:102190000E9455205B016C01F801658D768D878D5D
:1021A00090A1D2015D962D913D914D915C919097BA
:1021B0000E94AD1C9B01AC010E9455207B018C014B
:1021C000C401B301A60195010E94AE1CA8019701AC
:1021D0000E94AE1C0E94E2205B016C01E090B706F9
:1021E000F090B8060091B9061091BA06A8019701BF
:1021F0000E94501F18165CF00F2EF0E06F2EF0E0DA
:102200007F2EF0E88F2EFFE39F2EF02D08C0C8012F
:10221000B701A60195010E94541D3B014C01C40168
:10222000B30129813A814B815C810E94501F1816AD
:102230000CF051C0F201A1A0B2A0C3A0D4A0C6016D
:10224000B50129813A814B815C810E9455209B0117
:10225000AC010E9455207B018C012091B306309186
:10226000B4064091B5065091B6065058CA01B9015E
:102270000E94AE1C20E030E040E752E40E9455206E
:1022800020E030E040E752EC0E945520D2019596C4
:102290002D913D914D915C9198970E9455209B0105
:1022A000AC01C801B7010E94AE1C0E94E220A60149
:1022B00095010E94541D7B018C01A40193010E9491
:1022C0004D1D882344F43701480105C0C2010E9416
:1022D000DC0D3B014C01F20161A672A683A694A617
:1022E0000F900F900F900F90CF91DF911F910F9152
:1022F000FF90EF90DF90CF90BF90AF909F908F9026
:102300007F906F905F904F9008952F923F924F92E1
:102310005F926F927F928F929F92AF92BF92CF9275
:10232000DF92EF92FF920F931F93DF93CF93CDB77E
:10233000DEB7A6970FB6F894DEBF0FBECDBF298FCC
:102340003A8F4B8F5C8FED8EFE8E0F8F18A3A9A254
:10235000BAA2CBA2DCA29EA28DA2209198063091B7
:10236000990640919A0650919B060E9455200E9422
:10237000F21F5B016C0160909C0670909D0680903E
:102380009E0690909F062091A0063091A106409154
:10239000A2065091A30680913305282E3324089479
:1023A000211C311C8FE02822332407C083B78160B1
:1023B00083BF889583B78E7F83BF8091340590E07B
:1023C0008215930599F39091330581E4989F20013C
:1023D0001124E3E2F1E04E0E5F1E809135059091ED
:1023E0003605A0913705B091380586017501E81AC8
:1023F000F90A0A0B1B0B17FF08C010950095F09403
:10240000E094E11CF11C011D111D6D8D7E8D8F8DE1
:1024100098A10E9455200E94F21F69877A878B87B6
:102420009C87698D7A8D8B8D9C8DA40193010E9470
:1024300055200E94F21F6D837E838F839887A98227
:10244000BA82CB82DC82F201E082F18202831383C2
:102450002D813E814F8158858091390590913A05B3
:10246000A0913B05B0913C05281B390B4A0B5B0B37
:1024700057FF07C050954095309521953F4F4F4FDE
:102480005F4FF201248335834683578329853A853C
:102490004B855C8580913D0590913E05A0913F055F
:1024A000B0914005281B390B4A0B5B0B57FF07C047
:1024B00050954095309521953F4F4F4F5F4FF2011A
:1024C0002087318742875387E480F5800681178112
:1024D00080819181A281B3818E159F05A007B107EC
:1024E00010F4D801C70182179307A407B50710F4A9
:1024F000DA01C901F20185879687A787B08B00971B
:10250000A105B10509F445C269817A818B819C815D
:1025100020913505309136054091370550913805A9
:10252000621B730B840B950B0E94EF1D2091980684
:102530003091990640919A0650919B060E94541D35
:102540006D8B7E8B8F8B988F6D817E818F8198852F
:102550002091390530913A0540913B0550913C0559
:10256000621B730B840B950B0E94EF1D20919C0640
:1025700030919D0640919E0650919F060E94541DE9
:10258000698B7A8B8B8B9C8B69857A858B859C85F7
:1025900020913D0530913E0540913F055091400509
:1025A000621B730B840B950B0E94EF1D2091A006FC
:1025B0003091A1064091A2065091A3060E94541D9D
:1025C0006D877E878F87988B6D897E898F89988D9F
:1025D0000E9420213B014C0169897A898B899C8961
:1025E0000E9420217B018C016D857E858F859889D5
:1025F0000E9420215B016C01C401B301A801970175
:102600000E94AE1CA60195010E94AE1C0E94E22011
:10261000F20165A376A387A390A72DA13EA1232B4A
:1026200069F429A13AA14BA15CA10E94541D20E0AC
:1026300034E244E759E40E9455200AC060EC71EE90
:1026400084E69CE429A13AA14BA15CA10E94541DFF
:102650000E94F21FAC01CB01DA01BC01CD010E9446
:10266000ED1D9B01AC0160EC71EE84E69CE40E94E0
:10267000541D7B018C016D897E898F89988DA801FD
:1026800097010E945520F201658B768B878B908F86
:1026900069897A898B899C89A80197010E945520B4
:1026A000F201618F728F838F948F6D857E858F8508
:1026B0009889A80197010E945520F201658F768FB5
:1026C000878F90A365A176A187A190A5A801970106
:1026D0000E945520F20161A372A383A394A3658590
:1026E0007685878590890E94EF1D5B016C01A801AA
:1026F00097010E9455200E943A1D0E94C11D3B0176
:102700004C01F201618B728B838B948B80E090E0A3
:10271000A0E0B0E081A792A7A3A7B4A76091B306F9
:102720007091B4068091B5069091B60620E030E035
:1027300040E752E40E94552020E030E040E252E4BD
:102740000E94541D7B018C01F20165A176A187A135
:1027500090A5A60195010E94541D9B01AC01C801E2
:10276000B7010E94541D0E943A1D0E94BC1DF20137
:1027700065AB76AB87AB90AF80914105882359F06C
:10278000C2010E94DC0D8B019C01C201B901A801AC
:102790000E94180F1EC0F20165A676A687A690AA11
:1027A00061AA72AA83AA94AA11AE12AE13AE14AE95
:1027B0009201235C3F4F85859685A785B089F901F5
:1027C00080839183A283B383F20115AA16AA17AA64
:1027D00010AEF201148629813A814B815C8180918F
:1027E000350590913605A0913705B0913805281729
:1027F00039074A075B0714F480E284872D813E8104
:102800004F8158858091390590913A05A0913B05FB
:10281000B0913C05281739074A075B0724F4F201F9
:1028200084858064848729853A854B855C85809181
:102830003D0590913E05A0913F05B09140052817B8
:1028400039074A075B0724F4F2018485806884878E
:1028500020923305A5E3B5E0FE0131968CE00190AE
:102860000D928150E1F780914105882309F48FC0D2
:10287000D0903305EE24FF2440E050E012C0DA94FB
:10288000D7FE02C03FE0D32EFD2D21E4F2028001ED
:1028900011240D5D1E4FC801B7010E947010A701E1
:1028A0007801809134052D2D332727FD309590E058
:1028B0002817390721F780E090E0B7010E947010D7
:1028C00040913405EE24FF2420E030E014C081E480
:1028D0004802800111240D5D1E4FC901B701A801F6
:1028E0000E94970EC601019660E170E00E94682187
:1028F000482F97017801C42EDD24C7FCD094809125
:10290000330590E0C816D90611F7C901B70140E0B8
:1029100050E00E94970E20913405EE24FF2420C041
:1029200091E4290260011124E3E2F1E0CE0EDF1E02
:10293000E114F10469F0F70141A552A563A574A55E
:10294000F60101A512A523A534A5C7010E94180F01
:10295000C501019660E170E00E946821282F760190
:10296000A22EBB24A7FCB0948091330590E0A8165A
:10297000B906B1F6C7010E94DC0D8B019C01F7017D
:1029800041A552A563A574A5C7010E94180F0E9416
:102990000918A6960FB6F894DEBF0FBECDBFCF9133
:1029A000DF911F910F91FF90EF90DF90CF90BF903C
:1029B000AF909F908F907F906F905F904F903F90DF
:1029C0002F900895CF93DF93EC0190E08091410523
:1029D000811191E080E0209709F081E0981749F09B
:1029E0000E94EC1810924105CD2B19F081E08093E4
:1029F0004105DF91CF91089510923305109234056F
:102A000081E090E00E94E2148CE0E5E3F5E0DF0174
:102A10001D928A95E9F70895FC018081843221F4A2
:102A2000CF010E9478170895CF010E94C70408952E
:102A30001F93CF93DF9354C0E0917405EE23F1F11F
:102A40009A3011F09D30D1F5F0E0EE5BFA4F108234
:102A500082E495E00E940C15182FC82FD0E0209733
:102A600019F48BE191E025C083E191E00E948B0293
:102A7000123069F0133018F4113091F405C013309E
:102A800049F0143069F409C08FEF90E012C085EE70
:102A900090E00FC08DEC90E00CC086EB90E009C098
:102AA000BE01882777FD8095982F0E94270383EB2E
:102AB00090E00E948B021092740512C0913280F057
:102AC000892F8156AE2FB0E0EF5F8A3120F4AE5BE4
:102AD000BA4F905202C0AE5BBA4F9C93E09374051C
:102AE0000E942F02982F8F3F09F0A6CFDF91CF9140
:102AF0001F91089560E875E280E090E00E94DF0198
:102B000083E291E00E948B0280E291E00E948B02BE
:102B1000089584EF99EFACE3B4E480939806909322
:102B20009906A0939A06B0939B0680939C06909377
:102B30009D06A0939E06B0939F068093A006909357
:102B4000A106A093A206B093A3068EE18093A506EA
:102B500080E090E0AAEFB3E48093A6069093A706E6
:102B6000A093A806B093A9068093AA069093AB06FB
:102B7000A093AC06B093AD0680E090E0A8E4B2E488
:102B80008093B3069093B406A093B506B093B606AF
:102B90008DEC9CECACECBDE38093AF069093B0065B
:102BA000A093B106B093B2068CE18093AE0680E0AC
:102BB00090E0A6E9B3E48093B7069093B806A0939B
:102BC000B906B093BA06089580E090E00E947B03B6
:102BD000823081F488E996E061E070E043E250E001
:102BE0000E94E70320E0892B09F421E081E02827F7
:102BF00030E029C0813029F588E996E061E070E095
:102C00004BE150E00E94E703892BD9F080E090E08F
:102C1000A8E4B2E48093B3069093B406A093B506FB
:102C2000B093B60680E090E0A6E9B3E48093B706DF
:102C30009093B806A093B906B093BA0621E030E0AD
:102C400002C020E030E0C901089580E090E062E039
:102C50000E94830381E090E068E976E043E250E07F
:102C60000E949E030895EF92FF920F931F93CF93BC
:102C7000DF93EC017A018B018530910509F446C0A0
:102C8000863091054CF48330910571F184309105C3
:102C9000A4F597FF11C06AC08730910509F448C0B8
:102CA00087309105E4F18830910509F44AC08930F4
:102CB000910509F05BC04EC0CB01BA0120E030E0C5
:102CC00040E050E00E944D1D18161CF082EB91E090
:102CD00054C0CC0FDD1FCC0FDD1FC856D94FE88282
:102CE000F9820A831B8345C0CB01BA010E94B82038
:102CF0000E94C11D6093A5063CC04093A606509358
:102D0000A7066093A8067093A90633C04093AA064D
:102D10005093AB066093AC067093AD062AC0409307
:102D2000AF065093B0066093B1067093B20621C00F
:102D3000CB01BA010E9423210E94C11D6093AE06FF
:102D400018C04093B3065093B4066093B5067093D1
:102D5000B6060FC0DB01CA01BF778093B706909318
:102D6000B806A093B906B093BA0603C08EE991E005
:102D700004C00E94251689E891E00E948B02DF9131
:102D8000CF911F910F91FF90EF90089585E593E00B
:102D90000E948B02609198067091990680919A0624
:102DA00090919B060E94420380E493E00E948B0274
:102DB00060919C0670919D0680919E0690919F0661
:102DC0000E9442038BE293E00E948B026091A00676
:102DD0007091A1068091A2069091A3060E944203E1
:102DE00086E193E00E948B026091A50670E080E08E
:102DF00090E00E94270384EF92E00E948B02609192
:102E0000A6067091A7068091A8069091A9060E9437
:102E1000420381ED92E00E948B026091AA067091BC
:102E2000AB068091AC069091AD060E9442038EEAFB
:102E300092E00E948B026091AF067091B006809183
:102E4000B1069091B2060E94420385E992E00E9489
:102E50008B026091AE0670E080E090E00E94270354
:102E600082E792E00E948B026091AE0670E080E003
:102E700090E022E030E040E050E00E949A0289E6D3
:102E800092E00E948B026091B3067091B40680912B
:102E9000B5069091B6060E94420386E492E00E9435
:102EA0008B026091B7067091B8068091B906909137
:102EB000BA060E94420380E192E00E948B028BECF2
:102EC00091E00E948B0208950E94E415892B29F05D
:102ED0008AE691E00E948B0208958FE291E00E94C1
:102EE0008B020E9489150E9425160E94C61608951D
:102EF000EF92FF920F931F93DF93CF93CDB7DEB77F
:102F000029970FB6F894DEBF0FBECDBF8C0181E0CC
:102F10008983F80180818432E1F58181882319F465
:102F20000E94C61634C0C8017E010894E11CF11C41
:102F3000B701AE014E5F5F4F0E94A10D892B59F181
:102F40009981F801E90FF11D80818D3311F59F5FA3
:102F50009983C801B701AE014A5F5F4F0E94A10D7E
:102F6000892BC9F08981080F111DF8018081882300
:102F700081F46A817B818C819D810E94BC1DDC0172
:102F8000CB014E815F81688579850E94331680E090
:102F900003C083E001C081E029960FB6F894DEBF3C
:102FA0000FBECDBFCF91DF911F910F91FF90EF909A
:102FB0000895CF93DF93EC0180917505909176058C
:102FC000C817D90789F00E94EC18209741F01C1609
:102FD0001D0614F42D9801C02D9A2C9A01C02C982E
:102FE000D0937605C0937505DF91CF91089580E069
:102FF00090E040E050E060E070E00E94D917089552
:1030000080E090E040E050E060E070E00E94D9177E
:1030100008952898EFE6F0E080818260808308952B
:10302000289AEFE6F0E080818D7F808308951F92DB
:103030000F920FB60F9211248F939F939BB18091A3
:10304000AE068C71937E892B8BB99F918F910F90D7
:103050000FBE0F901F9018959B01AC01203B84E0A0
:10306000380780E0480780E0580720F420EB34E080
:1030700040E050E060E070E788E399E30E947B2144
:10308000C901DA01803020E0920721E0A20720E0A8
:10309000B20738F4FC019C0140E050E060E070E0D1
:1030A00031C0803020E0920728E0A20720E0B2077C
:1030B000A8F473E0B695A795979587957A95D1F77B
:1030C000FC019C0140E050E063E0220F331F441FED
:1030D000551F6A95D1F761E070E014C026E0B695FF
:1030E000A795979587952A95D1F7FC019C0140E01B
:1030F00050E086E0220F331F441F551F8A95D1F7F9
:1031000062E070E080918100962F9F5F887F982B0E
:1031100090938100F0938900E093880020938C05C0
:1031200030938D0540938E0550938F0508958AB195
:103130008C6F8AB98BB183709091AE06892B8BB955
:10314000209AE1E8F0E080818F7E80838081886032
:103150008083E0E8F0E080818D7F808380818E7FB6
:10316000808380818F73808380818F7C80831092A5
:10317000B00082E08093B100E0E7F0E08081816000
:10318000808360E777E180E090E00E942C18109245
:103190009005109291051092920510929305289A2D
:1031A000EFE6F0E080818D7F808378940895EF9240
:1031B000FF920F931F930E94590B60E070E080E034
:1031C00090E09B01AC017B018C010E943B0E1F91A2
:1031D0000F91FF90EF90089507C083B7816083BF80
:1031E000889583B78E7F83BF0E94280E892BA9F70D
:1031F00008951F920F920FB60F921124EF92FF9233
:103200000F931F932F933F934F935F936F937F93EE
:103210008F939F93AF93BF93CF93DF93EF93FF93DE
:1032200080918A0590918B05892B09F0FCC19BB197
:1032300020917905822F807E9F71892B8BB98BB16C
:10324000837E822B8BB98091A506880F845081954F
:103250008093B20081E090E090938B0580938A0583
:1032600078948091770590917805892B09F056C064
:103270000E94280EEC0190937805809377050097C3
:1032800009F446C06DA57EA58FA598A96093940505
:1032900070939505809396059093970510929005ED
:1032A0001092910510929205109293050E942C188D
:1032B0008D859E85AF85B889B595A7959795879596
:1032C000B095A095909581959F4FAF4FBF4F80933C
:1032D0007A0590937B05A0937C05B0937D05809340
:1032E0007E0590937F05A0938005B0938105809320
:1032F000820590938305A0938405B0938505109271
:10330000860510928705109288051092890506C0DF
:10331000289A80916F008D7F80936F00E0917705F0
:10332000F0917805309709F4BAC064856093790507
:1033300020917A0530917B0540917C0550917D0567
:1033400080819181A281B381280F391F4A1F5B1FA1
:1033500020937A0530937B0540937C0550937D053F
:1033600012161306140615069CF464606093790522
:1033700085859685A785B089281B390B4A0B5B0B81
:1033800020937A0530937B0540937C0550937D050F
:1033900020917E0530917F054091800550918105F7
:1033A00084819581A681B781280F391F4A1F5B1F31
:1033B00020937E0530937F054093800550938105CF
:1033C0001216130614061506ACF480917905886070
:1033D0008093790585859685A785B089281B390B4B
:1033E0004A0B5B0B20937E0530937F05409380054D
:1033F0005093810520918205309183054091840589
:103400005091850580859185A285B385280F391F48
:103410004A1F5B1F209382053093830540938405E8
:10342000509385051216130614061506ACF4809108
:10343000790580618093790585859685A785B08912
:10344000281B390B4A0B5B0B2093820530938305B5
:10345000409384055093850580918605909187055A
:10346000A0918805B09189050196A11DB11D809399
:10347000860590938705A0938805B09389052585D7
:1034800036854785508982179307A407B50748F00A
:1034900010927805109277050E94190E02C01092C2
:1034A0007905809179059091AE06892780937905F9
:1034B00020918C0530918D0540918E0550918F059E
:1034C0008091900590919105A0919205B0919305FE
:1034D000280F391F4A1F5B1F2093900530939105D9
:1034E000409392055093930521388AE1380786E08E
:1034F000480780E0580708F492C020583A414640F7
:10350000504020939005309391054093920550933D
:103510009305E0917705F0917805309709F47FC025
:10352000E0908605F0908705009188051091890547
:1035300081AD92ADA3ADB4ADE816F9060A071B073D
:1035400088F465A976A987A990AD2091940530915A
:1035500095054091960550919705620F731F841F42
:10356000951F53C0FD9680819181A281B381FD9703
:1035700020919405309195054091960550919705BD
:103580008E159F05A007B107B8F585A996A9A7A92B
:10359000B0AD82179307A407B50760F4281B390B59
:1035A0004A0B5B0B20939405309395054093960549
:1035B0005093970521A932A943A954A98091940554
:1035C00090919505A0919605B09197058217930764
:1035D000A407B50740F420939405309395054093D4
:1035E000960550939705609194057091950580918B
:1035F00096059091970511C0618972898389948994
:10360000261737074807590751F0609394057093C0
:10361000950580939605909397050E942C1810921B
:103620008B0510928A05FF91EF91DF91CF91BF91A9
:10363000AF919F918F917F916F915F914F913F914A
:103640002F911F910F91FF90EF900F900FBE0F9051
:103650001F901895A0E0B0E0E0E3FBE10C94BE21E0
:10366000EC015B016115710519F0FB019183808309
:10367000F9908F2D90E00E948D1C892BC9F7FDE2F7
:10368000FF1621F4F990EE24E39405C02BE2F21624
:1036900009F4F990EE248E0101501040C8016BE549
:1036A00073E043E050E00E94951C892B01F58E01E8
:1036B0000E5F1F4FC8016EE573E045E050E00E94C9
:1036C000951C892B19F48E01095F1F4FA114B104B9
:1036D00019F0F50111830083E0FC04C070E090E074
:1036E00080E814C070E090E080E86FEF08C1C80186
:1036F00063E673E043E050E00E94951C892B69F477
:10370000A114B10429F470E090E080EC6FE7F7C0F9
:103710002296F501D183C083F6CF8824992440E016
:1037200050E060E070E0EF2DE053EA30A0F5F2E009
:10373000EF2A8E2D90E09C0128703070E2FE06C0CA
:10374000232B79F50894811C911C2BC0232B19F095
:10375000089481089108DB01CA0112E0880F991FC3
:10376000AA1FBB1F1A95D1F7480F591F6A1F7B1F4D
:10377000440F551F661F771F4E0F511D611D711D90
:10378000483929E9520729E9620729E1720748F017
:1037900084E0E82A06C0EE3F31F4E3FC39C098E04B
:1037A000E92AF990C0CFE53311F0E53189F5299187
:1037B0002D3219F4E0E1EE2A05C02B3219F081E038
:1037C00090E003C0299182E090E0E22FE053EA30DC
:1037D00018F0C81BD90B1CC020E030E0FCE02038FA
:1037E0003F075CF4C901880F991F880F991F280FA4
:1037F000391F220F331F2E0F311DE991E053EA309C
:1038000068F3E4FE03C0309521953F4F820E931E6E
:10381000CE2CDD24E1FE07C0A114B10421F02197D4
:10382000F501D183C083CB01BA010E94ED1D7B015C
:103830008C01F3E0CF22DD2423E0C216D10421F471
:1038400017FB109517F9109557016801C801B701CA
:1038500020E030E040E050E00E944D1D882309F454
:103860004AC097FE0DC02AE7E22E23E0F22E909484
:10387000819491089394C0E2D0E000E010E012C07F
:1038800092E9E92E93E0F92EF6CFF70125913591D3
:1038900045915491C601B5010E9455205B016C0110
:1038A0008C1A9D0A8C169D0684F7D595C7950F5FD7
:1038B0001F4F0630110529F08CEF9FEFE80EF91E1F
:1038C000F1CFC501D6017C018D018C2D880F8D2D86
:1038D000881F8F3F51F0C601B50120E030E040E085
:1038E00050E00E944D1D882331F482E290E09093D5
:1038F000BC068093BB067E2D9F2D802F612F272F26
:10390000392F482F562FB901CA01CDB7DEB7ECE0E9
:103910000C94DA21F8940C94032291119FC4803204
:1039200019F089508550D0F70895FB01DC01415012
:10393000504088F08D9181341CF08B350CF4805E02
:10394000659161341CF06B350CF4605E861B61116F
:1039500071F3990B0895881BFCCF5058BB27AA27F9
:103960000ED03CC205D230F00AD220F031F49F3F95
:1039700011F41EF4D5C10EF4E095E7FBA2C1E92FC6
:103980004FD280F3BA17620773078407950718F0C0
:1039900071F49EF57EC20EF4E0950B2EBA2FA02D89
:1039A0000B01B90190010C01CA01A0011124FF27EC
:1039B000591B99F0593F50F4503E68F11A16F040E7
:1039C000A22F232F342F4427585FF3CF46953795E6
:1039D0002795A795F0405395C9F77EF41F16BA0BAB
:1039E000620B730B840BBAF09150A1F0FF0FBB1F59
:1039F000661F771F881FC2F70EC0BA0F621F731FA2
:103A0000841F48F4879577956795B795F7959E3FFE
:103A100008F0B3CF9395880F08F09927EE0F97958C
:103A200087950895DF93DD27B92FBF7740E85FE3DF
:103A30001616170648075B0710F4D92F96D29F93E6
:103A40008F937F936F93FCD3E8E6F0E06CD1C6D1FF
:103A50002F913F914F915F9134D3DD2349F09058DE
:103A6000A2EA2AED3FE049EC5FE3D0785D2787DFEB
:103A7000DF91B4C1F7D180F09F3740F491110EF47B
:103A800009C260E070E080E89FE3089526F01B160D
:103A9000611D711D811D1BC135C1EFD008F481E08E
:103AA000089575D1E395ABC10CD098C168D140F0B1
:103AB0005FD130F021F45F3F19F003C15111EAC129
:103AC0002FC1AED198F39923C9F35523B1F3951BB8
:103AD000550BBB27AA2762177307840738F09F5F2F
:103AE0005F4F220F331F441FAA1FA9F333D00E2E9E
:103AF0003AF0E0E830D091505040E695001CCAF70B
:103B000029D0FE2F27D0660F771F881FBB1F2617CF
:103B100037074807AB07B0E809F0BB0B802DBF01A2
:103B2000FF2793585F4F2AF09E3F510568F0C9C0A8
:103B3000B1C15F3FECF3983EDCF3869577956795CE
:103B4000B795F7959F5FC9F7880F911D9695879553
:103B500097F90895E1E0660F771F881FBB1F621772
:103B600073078407BA0720F0621B730B840BBA0B30
:103B7000EE1F88F7E095089504D06894B1118AC1CA
:103B8000089556D188F09F5790F0B92F9927B751D3
:103B9000A0F0D1F0660F771F881F991F1AF0BA9511
:103BA000C9F712C0B13081F074D1B1E0089571C18C
:103BB000672F782F8827B85F39F0B93FCCF3869507
:103BC00077956795B395D9F73EF490958095709564
:103BD00061957F4F8F4F9F4F0895E89409C097FBE1
:103BE0003EF490958095709561957F4F8F4F9F4FD4
:103BF0009923A9F0F92F96E9BB279395F695879518
:103C000077956795B795F111F8CFFAF4BB0F11F4DA
:103C100060FF1BC06F5F7F4F8F4F9F4F16C0882381
:103C200011F096E911C0772321F09EE8872F762FB7
:103C300005C0662371F096E8862F70E060E02AF0F8
:103C40009A95660F771F881FDAF7880F96958795E4
:103C500097F9089507D180F09F3740F491110EF045
:103C600019C160E070E080E89FEB089526F41B1610
:103C7000611D711D811D2BC045C0990F0008550F96
:103C8000AA0BE0E8FEEF16161706E807F907C0F0E2
:103C900012161306E407F50798F0621B730B840BEA
:103CA000950B39F40A2661F0232B242B252B21F4C4
:103CB00008950A2609F4A140A6958FEF811D811D64
:103CC000089597F99F6780E870E060E00895882381
:103CD00071F4772321F09850872B762F07C0662345
:103CE00011F499270DC09051862B70E060E02AF006
:103CF0009A95660F771F881FDAF7880F9695879534
:103D000097F908959F3F31F0915020F4879577956A
:103D10006795B795880F911D9695879597F90895A2
:103D20009FEF80EC0895DF93CF931F930F93FF9243
:103D3000EF92DF927B018C01689405C0DA2EEF01CF
:103D4000C0D1FE01E894A5912591359145915591F9
:103D5000AEF3EF0114DEFE019701A801DA9479F7C2
:103D6000DF90EF90FF900F911F91CF91DF91089519
:103D700000240A941616170618060906089500244A
:103D80000A9412161306140605060895C9CF50D0DA
:103D9000E8F3E894E0E0BB279F57F0F02AED3FE01E
:103DA00049EC06C0EE0FBB0F661F771F881F28F077
:103DB000B23A62077307840728F0B25A620B730B9A
:103DC000840BE3959A9572F7803830F49A95BB0F7F
:103DD000661F771F881FD2F7904896CF092E03944D
:103DE000000C11F4882352F0BB0F40F4BF2B11F4E8
:103DF00060FF04C06F5F7F4F8F4F9F4F0895EF9319
:103E0000E0FF06C0A2EA2AED3FE049EC5FEBB7DD38
:103E1000E5DF0F90039401FC9058E5E9F0E028C23B
:103E200057FD9058440F551F59F05F3F71F047956B
:103E3000880F97FB991F61F09F3F79F08795089550
:103E4000121613061406551FF2CF4695F1DF08C06F
:103E5000161617061806991FF1CF8695710561058C
:103E600008940895E5DFA0F0BEE7B91788F4BB27F2
:103E70009F3860F41616B11D672F782F8827985F3A
:103E8000F7CF869577956795B11D93959639C8F3C9
:103E90000895E894BB2766277727CB0197F9089503
:103EA000ECDE08F48FEF089563DF19F068DF09F0A6
:103EB00037CF07CFB901CA0125CF9F775F77B0DF32
:103EC00098F39923B9F35523B9F3FF27951758F4BD
:103ED000E52FE91BED3070F75E3B10F0F1E41CC0FC
:103EE0009034E0F40AC0E92FE51BED3028F79E3B43
:103EF00010F0F1E411C0503488F4F9EA88232AF074
:103F00009A95660F771F881FDAF744232AF05A958F
:103F1000220F331F441FDAF79F1B5F1BFF931F9372
:103F20000F93FF92EF9279018A01BB27AB2F9B0180
:103F3000AC01C9D09701A801BF937B018C01AA27CE
:103F4000BA2FB901CA01BFD0AF919701A801EF9074
:103F5000FF900F911F9113DD41DF34D14F9140FF4E
:103F60000895552747FD509509C09B01AC0160E0BD
:103F700070E080E89FE398CDA4CEC4CE59DFE8F38B
:103F80009923D9F3940F511DBBF39150504094F0F5
:103F900059F0882332F0660F771F881F91505040E8
:103FA000C1F79E3F510544F7880F911D969587955F
:103FB00097F908955F3FACF0983E9CF0BB2786953B
:103FC00077956795B79508F4B1609395C1F7BB0FE6
:103FD00058F711F460FFE8CF6F5F7F4F8F4F9F4F0F
:103FE000E3CF58CF25DF58F19E5758F19851A0F0F4
:103FF000E9F0983020F5092E9927660F771F881F62
:10400000991F0A94D1F712C0062E672F782F8827A0
:10401000985F11F4000C07C0993FB4F3869577952B
:1040200067959395D9F7611D711D811D3EF490959B
:104030008095709561957F4F8F4F9F4F089568943D
:1040400029CF27CFFA01DC01AA0FBB1F9B01AC01CE
:10405000BF5728F422273327442750781FC0B75171
:1040600088F4AB2F0024469537952795011CA3951E
:10407000D2F3002069F0220F331F441FB395DAF307
:104080000DD06BCC61307105A0E88A07B94630F4D9
:104090009B01AC016627772788279078309621F01E
:1040A000208331834283538308950BD097CE60DE03
:1040B00028F065DE18F0952309F003CE31CE1124E7
:1040C000E9CEAEDEA0F3959FD1F3950F50E0551FDA
:1040D000629FF001729FBB27F00DB11D639FAA275D
:1040E000F00DB11DAA1F649F6627B00DA11D661FAC
:1040F000829F2227B00DA11D621F739FB00DA11DCD
:10410000621F839FA00D611D221F749F3327A00D86
:10411000611D231F849F600D211D822F762F6A2F22
:1041200011249F5750408AF0E1F088234AF0EE0FA7
:10413000FF1FBB1F661F771F881F91505040A9F7B4
:104140009E3F510570F0BDCDA5CE5F3FECF3983E8C
:10415000DCF3869577956795B795F795E7959F5F1B
:10416000C1F7FE2B880F911D9695879597F90895B5
:104170005FDEE0F09E37D8F09639B8F49E3848F408
:10418000672F782F8827985FF9CF86957795679561
:1041900093959539D0F3B62FB1706B0F711D811DBA
:1041A00020F4879577956795939591CDABCD72CE99
:1041B0009F93EDDD0F9007FCEE5F21CE11F40EF41E
:1041C000AFCDA0CD35DED0F39923D9F3CEF39F57F1
:1041D000550B87FF46D00024A0E640EA90018058A6
:1041E0005695979528F4805C660F771F881F20F0FE
:1041F00026173707480730F4621B730B840B2029FE
:1042000031294A2BA69517940794202531254A2752
:1042100058F7660F771F881F20F0261737074807C3
:1042200030F4620B730B840B200D311D411DA095E2
:1042300081F7B901842F9158880F96958795089535
:104240009B01AC0132CF0EDE20F09F3708F422CE66
:104250003ECD58CD12DD880B990B089599278827FC
:10426000089591505040660F771F881FD2F7089528
:104270009F938F937F936F93FF93EF939B01AC0179
:1042800014DFEF91FF914FDD2F913F914F915F919F
:104290000CCF629FD001739FF001829FE00DF11D52
:1042A000649FE00DF11D929FF00D839FF00D749FB0
:1042B000F00D659FF00D9927729FB00DE11DF91F5C
:1042C000639FB00DE11DF91FBD01CF0111240895B9
:1042D00097FB092E07260AD077FD04D080D006D0A0
:1042E00000201AF4709561957F4F0895F6F7909528
:1042F00081959F4F0895A1E21A2EAA1BBB1BFD01B9
:104300000DC0AA1FBB1FEE1FFF1FA217B307E407B4
:10431000F50720F0A21BB30BE40BF50B661F771F0C
:10432000881F991F1A9469F76095709580959095EC
:104330009B01AC01BD01CF01089597FB092E052615
:104340000ED057FD04D0D7DF0AD0001C38F45095AA
:104350004095309521953F4F4F4F5F4F0895F6F7A9
:1043600090958095709561957F4F8F4F9F4F0895E1
:104370002F923F924F925F926F927F928F929F9275
:10438000AF92BF92CF92DF92EF92FF920F931F9363
:10439000CF93DF93CDB7DEB7CA1BDB0B0FB6F89414
:1043A000DEBF0FBECDBF09942A88398848885F8454
:1043B0006E847D848C849B84AA84B984C884DF80C5
:1043C000EE80FD800C811B81AA81B981CE0FD11DA9
:1043D0000FB6F894DEBF0FBECDBFED010895AA1B46
:1043E000BB1B51E107C0AA1FBB1FA617B70710F0E0
:1043F000A61BB70B881F991F5A95A9F78095909512
:0A440000BC01CD010895F894FFCF30
:00000001FF
